{
  "_format": "hh-sol-artifact-1",
  "contractName": "PortfolioFactoryEngine",
  "sourceName": "contracts/PortfolioFactoryEngine.sol",
  "address": "0x3C0ACD0209973ae3BcB84422552EFC3471e69A10",
  "abi": [
    {
      "inputs": [],
      "stateMutability": "nonpayable",
      "type": "constructor"
    },
    {
      "inputs": [],
      "name": "PortfolioFactoryEngine__NoPortfolioFound",
      "type": "error"
    },
    {
      "anonymous": false,
      "inputs": [
        {
          "indexed": false,
          "internalType": "address",
          "name": "portfolioAddress",
          "type": "address"
        }
      ],
      "name": "NewPortfolioCreated",
      "type": "event"
    },
    {
      "anonymous": false,
      "inputs": [
        {
          "indexed": false,
          "internalType": "string[]",
          "name": "symbol",
          "type": "string[]"
        },
        {
          "indexed": false,
          "internalType": "uint256[]",
          "name": "allocation",
          "type": "uint256[]"
        },
        {
          "indexed": false,
          "internalType": "uint256",
          "name": "newValue",
          "type": "uint256"
        },
        {
          "indexed": false,
          "internalType": "string",
          "name": "newName",
          "type": "string"
        }
      ],
      "name": "PortfolioUpdated",
      "type": "event"
    },
    {
      "inputs": [
        {
          "internalType": "string",
          "name": "_portfolioName",
          "type": "string"
        },
        {
          "internalType": "uint256",
          "name": "_portfolioValue",
          "type": "uint256"
        },
        {
          "internalType": "string[]",
          "name": "_symbols",
          "type": "string[]"
        },
        {
          "internalType": "uint256[]",
          "name": "_allocations",
          "type": "uint256[]"
        }
      ],
      "name": "createPortfolio",
      "outputs": [
        {
          "internalType": "address",
          "name": "",
          "type": "address"
        }
      ],
      "stateMutability": "nonpayable",
      "type": "function"
    },
    {
      "inputs": [],
      "name": "getNoOfTransactions",
      "outputs": [
        {
          "internalType": "uint256",
          "name": "",
          "type": "uint256"
        }
      ],
      "stateMutability": "view",
      "type": "function"
    },
    {
      "inputs": [],
      "name": "getUserPortfolioAddress",
      "outputs": [
        {
          "internalType": "address",
          "name": "",
          "type": "address"
        }
      ],
      "stateMutability": "view",
      "type": "function"
    },
    {
      "inputs": [],
      "name": "getUserPortfolioAssets",
      "outputs": [
        {
          "internalType": "string",
          "name": "",
          "type": "string"
        },
        {
          "internalType": "uint256",
          "name": "",
          "type": "uint256"
        },
        {
          "components": [
            {
              "internalType": "string",
              "name": "symbol",
              "type": "string"
            },
            {
              "internalType": "uint256",
              "name": "allocation",
              "type": "uint256"
            }
          ],
          "internalType": "struct Portfolio.Asset[]",
          "name": "",
          "type": "tuple[]"
        }
      ],
      "stateMutability": "view",
      "type": "function"
    },
    {
      "inputs": [],
      "name": "hasPortfolio",
      "outputs": [
        {
          "internalType": "bool",
          "name": "",
          "type": "bool"
        }
      ],
      "stateMutability": "view",
      "type": "function"
    },
    {
      "inputs": [
        {
          "internalType": "string[]",
          "name": "_symbols",
          "type": "string[]"
        },
        {
          "internalType": "uint256[]",
          "name": "_allocations",
          "type": "uint256[]"
        },
        {
          "internalType": "string",
          "name": "_newName",
          "type": "string"
        },
        {
          "internalType": "uint256",
          "name": "_newValue",
          "type": "uint256"
        }
      ],
      "name": "updatePortfolio",
      "outputs": [],
      "stateMutability": "nonpayable",
      "type": "function"
    }
  ],
  "bytecode": "0x608060405234801561001057600080fd5b50613117806100206000396000f3fe60806040523480156200001157600080fd5b50600436106200006a5760003560e01c806328fa939a146200006f578063432be82b14620000915780638902ae1814620000b1578063c014866114620000e7578063d5e4d67d1462000109578063d74fc1ea146200012b575b600080fd5b620000796200014f565b60405162000088919062000819565b60405180910390f35b620000af6004803603810190620000a9919062000baf565b62000196565b005b620000cf6004803603810190620000c9919062000c7e565b620003d3565b604051620000de919062000d92565b60405180910390f35b620000f162000533565b60405162000100919062000dcc565b60405180910390f35b62000113620005c8565b60405162000122919062000d92565b60405180910390f35b620001356200062e565b604051620001469392919062000fe6565b60405180910390f35b6000600160003373ffffffffffffffffffffffffffffffffffffffff1673ffffffffffffffffffffffffffffffffffffffff16815260200190815260200160002054905090565b600073ffffffffffffffffffffffffffffffffffffffff166000803373ffffffffffffffffffffffffffffffffffffffff1673ffffffffffffffffffffffffffffffffffffffff16815260200190815260200160002060009054906101000a900473ffffffffffffffffffffffffffffffffffffffff1673ffffffffffffffffffffffffffffffffffffffff16036200025b576040517f3cfa3c6100000000000000000000000000000000000000000000000000000000815260040160405180910390fd5b60008060003373ffffffffffffffffffffffffffffffffffffffff1673ffffffffffffffffffffffffffffffffffffffff16815260200190815260200160002060009054906101000a900473ffffffffffffffffffffffffffffffffffffffff1690508073ffffffffffffffffffffffffffffffffffffffff166341c594b686868587336040518663ffffffff1660e01b815260040162000301959493929190620011be565b600060405180830381600087803b1580156200031c57600080fd5b505af115801562000331573d6000803e3d6000fd5b5050505060018060003373ffffffffffffffffffffffffffffffffffffffff1673ffffffffffffffffffffffffffffffffffffffff16815260200190815260200160002060008282546200038691906200125f565b925050819055507f066b76a1b9c920ac9116a43eba311878272ceae8732be65cafb05247d1d1b4eb85858486604051620003c494939291906200129a565b60405180910390a15050505050565b6000808585858533604051620003e990620007f0565b620003f9959493929190620012fc565b604051809103906000f08015801562000416573d6000803e3d6000fd5b509050806000803373ffffffffffffffffffffffffffffffffffffffff1673ffffffffffffffffffffffffffffffffffffffff16815260200190815260200160002060006101000a81548173ffffffffffffffffffffffffffffffffffffffff021916908373ffffffffffffffffffffffffffffffffffffffff16021790555060018060003373ffffffffffffffffffffffffffffffffffffffff1673ffffffffffffffffffffffffffffffffffffffff1681526020019081526020016000206000828254620004e791906200125f565b925050819055507f830b6c7dd4ac49daae7fd74b39e45a6f02e43c903c8a1f897f8b505d01b1af93816040516200051f919062000d92565b60405180910390a180915050949350505050565b60008073ffffffffffffffffffffffffffffffffffffffff166000803373ffffffffffffffffffffffffffffffffffffffff1673ffffffffffffffffffffffffffffffffffffffff16815260200190815260200160002060009054906101000a900473ffffffffffffffffffffffffffffffffffffffff1673ffffffffffffffffffffffffffffffffffffffff161415905090565b60008060003373ffffffffffffffffffffffffffffffffffffffff1673ffffffffffffffffffffffffffffffffffffffff16815260200190815260200160002060009054906101000a900473ffffffffffffffffffffffffffffffffffffffff16905090565b606060006060600073ffffffffffffffffffffffffffffffffffffffff166000803373ffffffffffffffffffffffffffffffffffffffff1673ffffffffffffffffffffffffffffffffffffffff16815260200190815260200160002060009054906101000a900473ffffffffffffffffffffffffffffffffffffffff1673ffffffffffffffffffffffffffffffffffffffff1603620006f9576040517f3cfa3c6100000000000000000000000000000000000000000000000000000000815260040160405180910390fd5b60008060003373ffffffffffffffffffffffffffffffffffffffff1673ffffffffffffffffffffffffffffffffffffffff16815260200190815260200160002060009054906101000a900473ffffffffffffffffffffffffffffffffffffffff16905060008060008373ffffffffffffffffffffffffffffffffffffffff16639051f9936040518163ffffffff1660e01b8152600401600060405180830381865afa158015620007ad573d6000803e3d6000fd5b505050506040513d6000823e3d601f19601f82011682018060405250810190620007d891906200157c565b92509250925082828296509650965050505050909192565b611acb806200161783390190565b6000819050919050565b6200081381620007fe565b82525050565b600060208201905062000830600083018462000808565b92915050565b6000604051905090565b600080fd5b600080fd5b600080fd5b6000601f19601f8301169050919050565b7f4e487b7100000000000000000000000000000000000000000000000000000000600052604160045260246000fd5b6200089a826200084f565b810181811067ffffffffffffffff82111715620008bc57620008bb62000860565b5b80604052505050565b6000620008d162000836565b9050620008df82826200088f565b919050565b600067ffffffffffffffff82111562000902576200090162000860565b5b602082029050602081019050919050565b600080fd5b600080fd5b600067ffffffffffffffff8211156200093b576200093a62000860565b5b62000946826200084f565b9050602081019050919050565b82818337600083830152505050565b60006200097962000973846200091d565b620008c5565b90508281526020810184848401111562000998576200099762000918565b5b620009a584828562000953565b509392505050565b600082601f830112620009c557620009c46200084a565b5b8135620009d784826020860162000962565b91505092915050565b6000620009f7620009f184620008e4565b620008c5565b9050808382526020820190506020840283018581111562000a1d5762000a1c62000913565b5b835b8181101562000a6b57803567ffffffffffffffff81111562000a465762000a456200084a565b5b80860162000a558982620009ad565b8552602085019450505060208101905062000a1f565b5050509392505050565b600082601f83011262000a8d5762000a8c6200084a565b5b813562000a9f848260208601620009e0565b91505092915050565b600067ffffffffffffffff82111562000ac65762000ac562000860565b5b602082029050602081019050919050565b62000ae281620007fe565b811462000aee57600080fd5b50565b60008135905062000b028162000ad7565b92915050565b600062000b1f62000b198462000aa8565b620008c5565b9050808382526020820190506020840283018581111562000b455762000b4462000913565b5b835b8181101562000b72578062000b5d888262000af1565b84526020840193505060208101905062000b47565b5050509392505050565b600082601f83011262000b945762000b936200084a565b5b813562000ba684826020860162000b08565b91505092915050565b6000806000806080858703121562000bcc5762000bcb62000840565b5b600085013567ffffffffffffffff81111562000bed5762000bec62000845565b5b62000bfb8782880162000a75565b945050602085013567ffffffffffffffff81111562000c1f5762000c1e62000845565b5b62000c2d8782880162000b7c565b935050604085013567ffffffffffffffff81111562000c515762000c5062000845565b5b62000c5f87828801620009ad565b925050606062000c728782880162000af1565b91505092959194509250565b6000806000806080858703121562000c9b5762000c9a62000840565b5b600085013567ffffffffffffffff81111562000cbc5762000cbb62000845565b5b62000cca87828801620009ad565b945050602062000cdd8782880162000af1565b935050604085013567ffffffffffffffff81111562000d015762000d0062000845565b5b62000d0f8782880162000a75565b925050606085013567ffffffffffffffff81111562000d335762000d3262000845565b5b62000d418782880162000b7c565b91505092959194509250565b600073ffffffffffffffffffffffffffffffffffffffff82169050919050565b600062000d7a8262000d4d565b9050919050565b62000d8c8162000d6d565b82525050565b600060208201905062000da9600083018462000d81565b92915050565b60008115159050919050565b62000dc68162000daf565b82525050565b600060208201905062000de3600083018462000dbb565b92915050565b600081519050919050565b600082825260208201905092915050565b60005b8381101562000e2557808201518184015260208101905062000e08565b60008484015250505050565b600062000e3e8262000de9565b62000e4a818562000df4565b935062000e5c81856020860162000e05565b62000e67816200084f565b840191505092915050565b600081519050919050565b600082825260208201905092915050565b6000819050602082019050919050565b600082825260208201905092915050565b600062000ebc8262000de9565b62000ec8818562000e9e565b935062000eda81856020860162000e05565b62000ee5816200084f565b840191505092915050565b62000efb81620007fe565b82525050565b6000604083016000830151848203600086015262000f20828262000eaf565b915050602083015162000f37602086018262000ef0565b508091505092915050565b600062000f50838362000f01565b905092915050565b6000602082019050919050565b600062000f728262000e72565b62000f7e818562000e7d565b93508360208202850162000f928562000e8e565b8060005b8581101562000fd4578484038952815162000fb2858262000f42565b945062000fbf8362000f58565b925060208a0199505060018101905062000f96565b50829750879550505050505092915050565b6000606082019050818103600083015262001002818662000e31565b905062001013602083018562000808565b818103604083015262001027818462000f65565b9050949350505050565b600081519050919050565b600082825260208201905092915050565b6000819050602082019050919050565b60006200106b838362000eaf565b905092915050565b6000602082019050919050565b60006200108d8262001031565b6200109981856200103c565b935083602082028501620010ad856200104d565b8060005b85811015620010ef5784840389528151620010cd85826200105d565b9450620010da8362001073565b925060208a01995050600181019050620010b1565b50829750879550505050505092915050565b600081519050919050565b600082825260208201905092915050565b6000819050602082019050919050565b60006200113b838362000ef0565b60208301905092915050565b6000602082019050919050565b6000620011618262001101565b6200116d81856200110c565b93506200117a836200111d565b8060005b83811015620011b15781516200119588826200112d565b9750620011a28362001147565b9250506001810190506200117e565b5085935050505092915050565b600060a0820190508181036000830152620011da818862001080565b90508181036020830152620011f0818762001154565b905062001201604083018662000808565b818103606083015262001215818562000e31565b905062001226608083018462000d81565b9695505050505050565b7f4e487b7100000000000000000000000000000000000000000000000000000000600052601160045260246000fd5b60006200126c82620007fe565b91506200127983620007fe565b925082820190508082111562001294576200129362001230565b5b92915050565b60006080820190508181036000830152620012b6818762001080565b90508181036020830152620012cc818662001154565b9050620012dd604083018562000808565b8181036060830152620012f1818462000e31565b905095945050505050565b600060a082019050818103600083015262001318818862000e31565b905062001329602083018762000808565b81810360408301526200133d818662001080565b9050818103606083015262001353818562001154565b905062001364608083018462000d81565b9695505050505050565b6000620013856200137f846200091d565b620008c5565b905082815260208101848484011115620013a457620013a362000918565b5b620013b184828562000e05565b509392505050565b600082601f830112620013d157620013d06200084a565b5b8151620013e38482602086016200136e565b91505092915050565b600081519050620013fd8162000ad7565b92915050565b600067ffffffffffffffff82111562001421576200142062000860565b5b602082029050602081019050919050565b600080fd5b600080fd5b60006040828403121562001455576200145462001432565b5b620014616040620008c5565b9050600082015167ffffffffffffffff81111562001484576200148362001437565b5b6200149284828501620013b9565b6000830152506020620014a884828501620013ec565b60208301525092915050565b6000620014cb620014c58462001403565b620008c5565b90508083825260208201905060208402830185811115620014f157620014f062000913565b5b835b818110156200153f57805167ffffffffffffffff8111156200151a57620015196200084a565b5b8086016200152989826200143c565b85526020850194505050602081019050620014f3565b5050509392505050565b600082601f8301126200156157620015606200084a565b5b815162001573848260208601620014b4565b91505092915050565b60008060006060848603121562001598576200159762000840565b5b600084015167ffffffffffffffff811115620015b957620015b862000845565b5b620015c786828701620013b9565b9350506020620015da86828701620013ec565b925050604084015167ffffffffffffffff811115620015fe57620015fd62000845565b5b6200160c8682870162001549565b915050925092509256fe60806040523480156200001157600080fd5b5060405162001acb38038062001acb83398181016040528101906200003791906200055b565b80600260006101000a81548173ffffffffffffffffffffffffffffffffffffffff021916908373ffffffffffffffffffffffffffffffffffffffff160217905550846003908162000089919062000881565b508360018190555060005b83518110156200014a5760006040518060400160405280868481518110620000c157620000c062000968565b5b60200260200101518152602001858481518110620000e457620000e362000968565b5b6020026020010151815250908060018154018082558091505060019003906000526020600020906002020160009091909190915060008201518160000190816200012f919062000881565b50602082015181600101555050808060010191505062000094565b50505050505062000997565b6000604051905090565b600080fd5b600080fd5b600080fd5b600080fd5b6000601f19601f8301169050919050565b7f4e487b7100000000000000000000000000000000000000000000000000000000600052604160045260246000fd5b620001bf8262000174565b810181811067ffffffffffffffff82111715620001e157620001e062000185565b5b80604052505050565b6000620001f662000156565b9050620002048282620001b4565b919050565b600067ffffffffffffffff82111562000227576200022662000185565b5b620002328262000174565b9050602081019050919050565b60005b838110156200025f57808201518184015260208101905062000242565b60008484015250505050565b6000620002826200027c8462000209565b620001ea565b905082815260208101848484011115620002a157620002a06200016f565b5b620002ae8482856200023f565b509392505050565b600082601f830112620002ce57620002cd6200016a565b5b8151620002e08482602086016200026b565b91505092915050565b6000819050919050565b620002fe81620002e9565b81146200030a57600080fd5b50565b6000815190506200031e81620002f3565b92915050565b600067ffffffffffffffff82111562000342576200034162000185565b5b602082029050602081019050919050565b600080fd5b60006200036f620003698462000324565b620001ea565b9050808382526020820190506020840283018581111562000395576200039462000353565b5b835b81811015620003e357805167ffffffffffffffff811115620003be57620003bd6200016a565b5b808601620003cd8982620002b6565b8552602085019450505060208101905062000397565b5050509392505050565b600082601f8301126200040557620004046200016a565b5b81516200041784826020860162000358565b91505092915050565b600067ffffffffffffffff8211156200043e576200043d62000185565b5b602082029050602081019050919050565b600062000466620004608462000420565b620001ea565b905080838252602082019050602084028301858111156200048c576200048b62000353565b5b835b81811015620004b95780620004a488826200030d565b8452602084019350506020810190506200048e565b5050509392505050565b600082601f830112620004db57620004da6200016a565b5b8151620004ed8482602086016200044f565b91505092915050565b600073ffffffffffffffffffffffffffffffffffffffff82169050919050565b60006200052382620004f6565b9050919050565b620005358162000516565b81146200054157600080fd5b50565b60008151905062000555816200052a565b92915050565b600080600080600060a086880312156200057a576200057962000160565b5b600086015167ffffffffffffffff8111156200059b576200059a62000165565b5b620005a988828901620002b6565b9550506020620005bc888289016200030d565b945050604086015167ffffffffffffffff811115620005e057620005df62000165565b5b620005ee88828901620003ed565b935050606086015167ffffffffffffffff81111562000612576200061162000165565b5b6200062088828901620004c3565b9250506080620006338882890162000544565b9150509295509295909350565b600081519050919050565b7f4e487b7100000000000000000000000000000000000000000000000000000000600052602260045260246000fd5b600060028204905060018216806200069357607f821691505b602082108103620006a957620006a86200064b565b5b50919050565b60008190508160005260206000209050919050565b60006020601f8301049050919050565b600082821b905092915050565b600060088302620007137fffffffffffffffffffffffffffffffffffffffffffffffffffffffffffffffff82620006d4565b6200071f8683620006d4565b95508019841693508086168417925050509392505050565b6000819050919050565b6000620007626200075c6200075684620002e9565b62000737565b620002e9565b9050919050565b6000819050919050565b6200077e8362000741565b620007966200078d8262000769565b848454620006e1565b825550505050565b600090565b620007ad6200079e565b620007ba81848462000773565b505050565b5b81811015620007e257620007d6600082620007a3565b600181019050620007c0565b5050565b601f8211156200083157620007fb81620006af565b6200080684620006c4565b8101602085101562000816578190505b6200082e6200082585620006c4565b830182620007bf565b50505b505050565b600082821c905092915050565b6000620008566000198460080262000836565b1980831691505092915050565b600062000871838362000843565b9150826002028217905092915050565b6200088c8262000640565b67ffffffffffffffff811115620008a857620008a762000185565b5b620008b482546200067a565b620008c1828285620007e6565b600060209050601f831160018114620008f95760008415620008e4578287015190505b620008f0858262000863565b86555062000960565b601f1984166200090986620006af565b60005b8281101562000933578489015182556001820191506020850194506020810190506200090c565b868310156200095357848901516200094f601f89168262000843565b8355505b6001600288020188555050505b505050505050565b7f4e487b7100000000000000000000000000000000000000000000000000000000600052603260045260246000fd5b61112480620009a76000396000f3fe608060405234801561001057600080fd5b50600436106100625760003560e01c806341c594b61461006757806373acb590146100835780638da5cb5b146100a15780639051f993146100bf578063ae718c71146100df578063cf35bdd0146100fd575b600080fd5b610081600480360381019061007c9190610a23565b61012e565b005b61008b6102cd565b6040516100989190610b01565b60405180910390f35b6100a96102d3565b6040516100b69190610b2b565b60405180910390f35b6100c76102f9565b6040516100d693929190610d1d565b60405180910390f35b6100e7610492565b6040516100f49190610d62565b60405180910390f35b61011760048036038101906101129190610d84565b610520565b604051610125929190610db1565b60405180910390f35b80600260009054906101000a900473ffffffffffffffffffffffffffffffffffffffff1673ffffffffffffffffffffffffffffffffffffffff168173ffffffffffffffffffffffffffffffffffffffff16146101b6576040517f21addeed00000000000000000000000000000000000000000000000000000000815260040160405180910390fd5b84518651146101f1576040517fb1a4200400000000000000000000000000000000000000000000000000000000815260040160405180910390fd5b6000806101fe91906105dc565b60005b86518110156102ad576000604051806040016040528089848151811061022a57610229610de1565b5b6020026020010151815260200188848151811061024a57610249610de1565b5b602002602001015181525090806001815401808255809150506001900390600052602060002090600202016000909190919091506000820151816000019081610293919061101c565b506020820151816001015550508080600101915050610201565b508360018190555082600390816102c4919061101c565b50505050505050565b60015481565b600260009054906101000a900473ffffffffffffffffffffffffffffffffffffffff1681565b6060600060606003600154600082805461031290610e3f565b80601f016020809104026020016040519081016040528092919081815260200182805461033e90610e3f565b801561038b5780601f106103605761010080835404028352916020019161038b565b820191906000526020600020905b81548152906001019060200180831161036e57829003601f168201915b5050505050925080805480602002602001604051908101604052809291908181526020016000905b8282101561048157838290600052602060002090600202016040518060400160405290816000820180546103e690610e3f565b80601f016020809104026020016040519081016040528092919081815260200182805461041290610e3f565b801561045f5780601f106104345761010080835404028352916020019161045f565b820191906000526020600020905b81548152906001019060200180831161044257829003601f168201915b50505050508152602001600182015481525050815260200190600101906103b3565b505050509050925092509250909192565b6003805461049f90610e3f565b80601f01602080910402602001604051908101604052809291908181526020018280546104cb90610e3f565b80156105185780601f106104ed57610100808354040283529160200191610518565b820191906000526020600020905b8154815290600101906020018083116104fb57829003601f168201915b505050505081565b6000818154811061053057600080fd5b906000526020600020906002020160009150905080600001805461055390610e3f565b80601f016020809104026020016040519081016040528092919081815260200182805461057f90610e3f565b80156105cc5780601f106105a1576101008083540402835291602001916105cc565b820191906000526020600020905b8154815290600101906020018083116105af57829003601f168201915b5050505050908060010154905082565b50805460008255600202906000526020600020908101906105fd9190610600565b50565b5b8082111561062b576000808201600061061a919061062f565b600182016000905550600201610601565b5090565b50805461063b90610e3f565b6000825580601f1061064d575061066c565b601f01602090049060005260206000209081019061066b919061066f565b5b50565b5b80821115610688576000816000905550600101610670565b5090565b6000604051905090565b600080fd5b600080fd5b600080fd5b6000601f19601f8301169050919050565b7f4e487b7100000000000000000000000000000000000000000000000000000000600052604160045260246000fd5b6106ee826106a5565b810181811067ffffffffffffffff8211171561070d5761070c6106b6565b5b80604052505050565b600061072061068c565b905061072c82826106e5565b919050565b600067ffffffffffffffff82111561074c5761074b6106b6565b5b602082029050602081019050919050565b600080fd5b600080fd5b600067ffffffffffffffff821115610782576107816106b6565b5b61078b826106a5565b9050602081019050919050565b82818337600083830152505050565b60006107ba6107b584610767565b610716565b9050828152602081018484840111156107d6576107d5610762565b5b6107e1848285610798565b509392505050565b600082601f8301126107fe576107fd6106a0565b5b813561080e8482602086016107a7565b91505092915050565b600061082a61082584610731565b610716565b9050808382526020820190506020840283018581111561084d5761084c61075d565b5b835b8181101561089457803567ffffffffffffffff811115610872576108716106a0565b5b80860161087f89826107e9565b8552602085019450505060208101905061084f565b5050509392505050565b600082601f8301126108b3576108b26106a0565b5b81356108c3848260208601610817565b91505092915050565b600067ffffffffffffffff8211156108e7576108e66106b6565b5b602082029050602081019050919050565b6000819050919050565b61090b816108f8565b811461091657600080fd5b50565b60008135905061092881610902565b92915050565b600061094161093c846108cc565b610716565b905080838252602082019050602084028301858111156109645761096361075d565b5b835b8181101561098d57806109798882610919565b845260208401935050602081019050610966565b5050509392505050565b600082601f8301126109ac576109ab6106a0565b5b81356109bc84826020860161092e565b91505092915050565b600073ffffffffffffffffffffffffffffffffffffffff82169050919050565b60006109f0826109c5565b9050919050565b610a00816109e5565b8114610a0b57600080fd5b50565b600081359050610a1d816109f7565b92915050565b600080600080600060a08688031215610a3f57610a3e610696565b5b600086013567ffffffffffffffff811115610a5d57610a5c61069b565b5b610a698882890161089e565b955050602086013567ffffffffffffffff811115610a8a57610a8961069b565b5b610a9688828901610997565b9450506040610aa788828901610919565b935050606086013567ffffffffffffffff811115610ac857610ac761069b565b5b610ad4888289016107e9565b9250506080610ae588828901610a0e565b9150509295509295909350565b610afb816108f8565b82525050565b6000602082019050610b166000830184610af2565b92915050565b610b25816109e5565b82525050565b6000602082019050610b406000830184610b1c565b92915050565b600081519050919050565b600082825260208201905092915050565b60005b83811015610b80578082015181840152602081019050610b65565b60008484015250505050565b6000610b9782610b46565b610ba18185610b51565b9350610bb1818560208601610b62565b610bba816106a5565b840191505092915050565b600081519050919050565b600082825260208201905092915050565b6000819050602082019050919050565b600082825260208201905092915050565b6000610c0d82610b46565b610c178185610bf1565b9350610c27818560208601610b62565b610c30816106a5565b840191505092915050565b610c44816108f8565b82525050565b60006040830160008301518482036000860152610c678282610c02565b9150506020830151610c7c6020860182610c3b565b508091505092915050565b6000610c938383610c4a565b905092915050565b6000602082019050919050565b6000610cb382610bc5565b610cbd8185610bd0565b935083602082028501610ccf85610be1565b8060005b85811015610d0b5784840389528151610cec8582610c87565b9450610cf783610c9b565b925060208a01995050600181019050610cd3565b50829750879550505050505092915050565b60006060820190508181036000830152610d378186610b8c565b9050610d466020830185610af2565b8181036040830152610d588184610ca8565b9050949350505050565b60006020820190508181036000830152610d7c8184610b8c565b905092915050565b600060208284031215610d9a57610d99610696565b5b6000610da884828501610919565b91505092915050565b60006040820190508181036000830152610dcb8185610b8c565b9050610dda6020830184610af2565b9392505050565b7f4e487b7100000000000000000000000000000000000000000000000000000000600052603260045260246000fd5b7f4e487b7100000000000000000000000000000000000000000000000000000000600052602260045260246000fd5b60006002820490506001821680610e5757607f821691505b602082108103610e6a57610e69610e10565b5b50919050565b60008190508160005260206000209050919050565b60006020601f8301049050919050565b600082821b905092915050565b600060088302610ed27fffffffffffffffffffffffffffffffffffffffffffffffffffffffffffffffff82610e95565b610edc8683610e95565b95508019841693508086168417925050509392505050565b6000819050919050565b6000610f19610f14610f0f846108f8565b610ef4565b6108f8565b9050919050565b6000819050919050565b610f3383610efe565b610f47610f3f82610f20565b848454610ea2565b825550505050565b600090565b610f5c610f4f565b610f67818484610f2a565b505050565b5b81811015610f8b57610f80600082610f54565b600181019050610f6d565b5050565b601f821115610fd057610fa181610e70565b610faa84610e85565b81016020851015610fb9578190505b610fcd610fc585610e85565b830182610f6c565b50505b505050565b600082821c905092915050565b6000610ff360001984600802610fd5565b1980831691505092915050565b600061100c8383610fe2565b9150826002028217905092915050565b61102582610b46565b67ffffffffffffffff81111561103e5761103d6106b6565b5b6110488254610e3f565b611053828285610f8f565b600060209050601f8311600181146110865760008415611074578287015190505b61107e8582611000565b8655506110e6565b601f19841661109486610e70565b60005b828110156110bc57848901518255600182019150602085019450602081019050611097565b868310156110d957848901516110d5601f891682610fe2565b8355505b6001600288020188555050505b50505050505056fea26469706673582212201fc0168ed432e81998030844c2b0fbe03eaae8f74417f3a8348f6c70a3162ec364736f6c63430008180033a264697066735822122054831c81374961a4b59c5d8202d10b94bcb3e7a1853d6c992e5ea7c8b2a6447064736f6c63430008180033",
  "linkReferences": {},
  "deployedLinkReferences": {}
}