{
  "_format": "hh-sol-artifact-1",
  "contractName": "PortfolioFactoryEngine",
  "sourceName": "contracts/PortfolioFactoryEngine.sol",
  "address": "0xb22Be966458e716249eEB36D910A1725d9BbdeBf",
  "abi": [
    {
      "inputs": [],
      "stateMutability": "nonpayable",
      "type": "constructor"
    },
    {
      "inputs": [],
      "name": "PortfolioFactoryEngine__NoPortfolioFound",
      "type": "error"
    },
    {
      "anonymous": false,
      "inputs": [
        {
          "indexed": false,
          "internalType": "string[]",
          "name": "symbol",
          "type": "string[]"
        },
        {
          "indexed": false,
          "internalType": "uint256[]",
          "name": "allocation",
          "type": "uint256[]"
        }
      ],
      "name": "AssetsUpdated",
      "type": "event"
    },
    {
      "anonymous": false,
      "inputs": [
        {
          "indexed": false,
          "internalType": "address",
          "name": "portfolioAddress",
          "type": "address"
        }
      ],
      "name": "NewPortfolioCreated",
      "type": "event"
    },
    {
      "anonymous": false,
      "inputs": [
        {
          "indexed": false,
          "internalType": "string",
          "name": "newName",
          "type": "string"
        }
      ],
      "name": "PortfolioNameUpdated",
      "type": "event"
    },
    {
      "anonymous": false,
      "inputs": [
        {
          "indexed": false,
          "internalType": "uint256",
          "name": "newValue",
          "type": "uint256"
        }
      ],
      "name": "PortfolioValueUpdated",
      "type": "event"
    },
    {
      "inputs": [
        {
          "internalType": "string",
          "name": "_portfolioName",
          "type": "string"
        },
        {
          "internalType": "uint256",
          "name": "_portfolioValue",
          "type": "uint256"
        },
        {
          "internalType": "string[]",
          "name": "_symbols",
          "type": "string[]"
        },
        {
          "internalType": "uint256[]",
          "name": "_allocations",
          "type": "uint256[]"
        }
      ],
      "name": "createPortfolio",
      "outputs": [
        {
          "internalType": "address",
          "name": "",
          "type": "address"
        }
      ],
      "stateMutability": "nonpayable",
      "type": "function"
    },
    {
      "inputs": [],
      "name": "getUserPortfolioAddress",
      "outputs": [
        {
          "internalType": "address",
          "name": "",
          "type": "address"
        }
      ],
      "stateMutability": "view",
      "type": "function"
    },
    {
      "inputs": [],
      "name": "getUserPortfolioAssets",
      "outputs": [
        {
          "internalType": "string",
          "name": "",
          "type": "string"
        },
        {
          "internalType": "uint256",
          "name": "",
          "type": "uint256"
        },
        {
          "components": [
            {
              "internalType": "string",
              "name": "symbol",
              "type": "string"
            },
            {
              "internalType": "uint256",
              "name": "allocation",
              "type": "uint256"
            }
          ],
          "internalType": "struct Portfolio.Asset[]",
          "name": "",
          "type": "tuple[]"
        }
      ],
      "stateMutability": "view",
      "type": "function"
    },
    {
      "inputs": [],
      "name": "hasPortfolio",
      "outputs": [
        {
          "internalType": "bool",
          "name": "",
          "type": "bool"
        }
      ],
      "stateMutability": "view",
      "type": "function"
    },
    {
      "inputs": [
        {
          "internalType": "string[]",
          "name": "_symbols",
          "type": "string[]"
        },
        {
          "internalType": "uint256[]",
          "name": "_allocations",
          "type": "uint256[]"
        }
      ],
      "name": "updatePortfolio",
      "outputs": [],
      "stateMutability": "nonpayable",
      "type": "function"
    },
    {
      "inputs": [
        {
          "internalType": "string",
          "name": "_newName",
          "type": "string"
        }
      ],
      "name": "updatePortfolioName",
      "outputs": [],
      "stateMutability": "nonpayable",
      "type": "function"
    }
  ],
  "bytecode": "0x608060405234801561001057600080fd5b50613247806100206000396000f3fe60806040523480156200001157600080fd5b50600436106200006a5760003560e01c806307ce5059146200006f5780638902ae18146200008f5780639b2f276414620000c5578063c014866114620000e5578063d5e4d67d1462000107578063d74fc1ea1462000129575b600080fd5b6200008d600480360381019062000087919062000a47565b6200014d565b005b620000ad6004803603810190620000a7919062000ca5565b62000323565b604051620000bc919062000db9565b60405180910390f35b620000e36004803603810190620000dd919062000dd6565b6200042b565b005b620000ef62000606565b604051620000fe919062000e78565b60405180910390f35b620001116200069b565b60405162000120919062000db9565b60405180910390f35b6200013362000701565b6040516200014493929190620010a3565b60405180910390f35b600073ffffffffffffffffffffffffffffffffffffffff166000803373ffffffffffffffffffffffffffffffffffffffff1673ffffffffffffffffffffffffffffffffffffffff16815260200190815260200160002060009054906101000a900473ffffffffffffffffffffffffffffffffffffffff1673ffffffffffffffffffffffffffffffffffffffff160362000212576040517f3cfa3c6100000000000000000000000000000000000000000000000000000000815260040160405180910390fd5b60008060003373ffffffffffffffffffffffffffffffffffffffff1673ffffffffffffffffffffffffffffffffffffffff16815260200190815260200160002060009054906101000a900473ffffffffffffffffffffffffffffffffffffffff1690508073ffffffffffffffffffffffffffffffffffffffff16638238a07383336040518363ffffffff1660e01b8152600401620002b2929190620010ee565b600060405180830381600087803b158015620002cd57600080fd5b505af1158015620002e2573d6000803e3d6000fd5b505050507f06df12df2c7d3d81a035aa14dd7eba9e75e87dea9debbf7a9b50f25a449c25858260405162000317919062001122565b60405180910390a15050565b60008085858585336040516200033990620008c3565b62000349959493929190620012d3565b604051809103906000f08015801562000366573d6000803e3d6000fd5b509050806000803373ffffffffffffffffffffffffffffffffffffffff1673ffffffffffffffffffffffffffffffffffffffff16815260200190815260200160002060006101000a81548173ffffffffffffffffffffffffffffffffffffffff021916908373ffffffffffffffffffffffffffffffffffffffff1602179055507f830b6c7dd4ac49daae7fd74b39e45a6f02e43c903c8a1f897f8b505d01b1af938160405162000417919062000db9565b60405180910390a180915050949350505050565b600073ffffffffffffffffffffffffffffffffffffffff166000803373ffffffffffffffffffffffffffffffffffffffff1673ffffffffffffffffffffffffffffffffffffffff16815260200190815260200160002060009054906101000a900473ffffffffffffffffffffffffffffffffffffffff1673ffffffffffffffffffffffffffffffffffffffff1603620004f0576040517f3cfa3c6100000000000000000000000000000000000000000000000000000000815260040160405180910390fd5b60008060003373ffffffffffffffffffffffffffffffffffffffff1673ffffffffffffffffffffffffffffffffffffffff16815260200190815260200160002060009054906101000a900473ffffffffffffffffffffffffffffffffffffffff1690508073ffffffffffffffffffffffffffffffffffffffff16637664783c8484336040518463ffffffff1660e01b8152600401620005929392919062001345565b600060405180830381600087803b158015620005ad57600080fd5b505af1158015620005c2573d6000803e3d6000fd5b505050507f337e5d8b086786aa562195d35c32b23dee4b1a0cbc2b7976417cf46928cf7c8b8383604051620005f992919062001390565b60405180910390a1505050565b60008073ffffffffffffffffffffffffffffffffffffffff166000803373ffffffffffffffffffffffffffffffffffffffff1673ffffffffffffffffffffffffffffffffffffffff16815260200190815260200160002060009054906101000a900473ffffffffffffffffffffffffffffffffffffffff1673ffffffffffffffffffffffffffffffffffffffff161415905090565b60008060003373ffffffffffffffffffffffffffffffffffffffff1673ffffffffffffffffffffffffffffffffffffffff16815260200190815260200160002060009054906101000a900473ffffffffffffffffffffffffffffffffffffffff16905090565b606060006060600073ffffffffffffffffffffffffffffffffffffffff166000803373ffffffffffffffffffffffffffffffffffffffff1673ffffffffffffffffffffffffffffffffffffffff16815260200190815260200160002060009054906101000a900473ffffffffffffffffffffffffffffffffffffffff1673ffffffffffffffffffffffffffffffffffffffff1603620007cc576040517f3cfa3c6100000000000000000000000000000000000000000000000000000000815260040160405180910390fd5b60008060003373ffffffffffffffffffffffffffffffffffffffff1673ffffffffffffffffffffffffffffffffffffffff16815260200190815260200160002060009054906101000a900473ffffffffffffffffffffffffffffffffffffffff16905060008060008373ffffffffffffffffffffffffffffffffffffffff16639051f9936040518163ffffffff1660e01b8152600401600060405180830381865afa15801562000880573d6000803e3d6000fd5b505050506040513d6000823e3d601f19601f82011682018060405250810190620008ab9190620015d9565b92509250925082828296509650965050505050909192565b611b9e806200167483390190565b6000604051905090565b600080fd5b600080fd5b600080fd5b600080fd5b6000601f19601f8301169050919050565b7f4e487b7100000000000000000000000000000000000000000000000000000000600052604160045260246000fd5b6200093a82620008ef565b810181811067ffffffffffffffff821117156200095c576200095b62000900565b5b80604052505050565b600062000971620008d1565b90506200097f82826200092f565b919050565b600067ffffffffffffffff821115620009a257620009a162000900565b5b620009ad82620008ef565b9050602081019050919050565b82818337600083830152505050565b6000620009e0620009da8462000984565b62000965565b905082815260208101848484011115620009ff57620009fe620008ea565b5b62000a0c848285620009ba565b509392505050565b600082601f83011262000a2c5762000a2b620008e5565b5b813562000a3e848260208601620009c9565b91505092915050565b60006020828403121562000a605762000a5f620008db565b5b600082013567ffffffffffffffff81111562000a815762000a80620008e0565b5b62000a8f8482850162000a14565b91505092915050565b6000819050919050565b62000aad8162000a98565b811462000ab957600080fd5b50565b60008135905062000acd8162000aa2565b92915050565b600067ffffffffffffffff82111562000af15762000af062000900565b5b602082029050602081019050919050565b600080fd5b600062000b1e62000b188462000ad3565b62000965565b9050808382526020820190506020840283018581111562000b445762000b4362000b02565b5b835b8181101562000b9257803567ffffffffffffffff81111562000b6d5762000b6c620008e5565b5b80860162000b7c898262000a14565b8552602085019450505060208101905062000b46565b5050509392505050565b600082601f83011262000bb45762000bb3620008e5565b5b813562000bc684826020860162000b07565b91505092915050565b600067ffffffffffffffff82111562000bed5762000bec62000900565b5b602082029050602081019050919050565b600062000c1562000c0f8462000bcf565b62000965565b9050808382526020820190506020840283018581111562000c3b5762000c3a62000b02565b5b835b8181101562000c68578062000c53888262000abc565b84526020840193505060208101905062000c3d565b5050509392505050565b600082601f83011262000c8a5762000c89620008e5565b5b813562000c9c84826020860162000bfe565b91505092915050565b6000806000806080858703121562000cc25762000cc1620008db565b5b600085013567ffffffffffffffff81111562000ce35762000ce2620008e0565b5b62000cf18782880162000a14565b945050602062000d048782880162000abc565b935050604085013567ffffffffffffffff81111562000d285762000d27620008e0565b5b62000d368782880162000b9c565b925050606085013567ffffffffffffffff81111562000d5a5762000d59620008e0565b5b62000d688782880162000c72565b91505092959194509250565b600073ffffffffffffffffffffffffffffffffffffffff82169050919050565b600062000da18262000d74565b9050919050565b62000db38162000d94565b82525050565b600060208201905062000dd0600083018462000da8565b92915050565b6000806040838503121562000df05762000def620008db565b5b600083013567ffffffffffffffff81111562000e115762000e10620008e0565b5b62000e1f8582860162000b9c565b925050602083013567ffffffffffffffff81111562000e435762000e42620008e0565b5b62000e518582860162000c72565b9150509250929050565b60008115159050919050565b62000e728162000e5b565b82525050565b600060208201905062000e8f600083018462000e67565b92915050565b600081519050919050565b600082825260208201905092915050565b60005b8381101562000ed157808201518184015260208101905062000eb4565b60008484015250505050565b600062000eea8262000e95565b62000ef6818562000ea0565b935062000f0881856020860162000eb1565b62000f1381620008ef565b840191505092915050565b62000f298162000a98565b82525050565b600081519050919050565b600082825260208201905092915050565b6000819050602082019050919050565b600082825260208201905092915050565b600062000f798262000e95565b62000f85818562000f5b565b935062000f9781856020860162000eb1565b62000fa281620008ef565b840191505092915050565b62000fb88162000a98565b82525050565b6000604083016000830151848203600086015262000fdd828262000f6c565b915050602083015162000ff4602086018262000fad565b508091505092915050565b60006200100d838362000fbe565b905092915050565b6000602082019050919050565b60006200102f8262000f2f565b6200103b818562000f3a565b9350836020820285016200104f8562000f4b565b8060005b858110156200109157848403895281516200106f858262000fff565b94506200107c8362001015565b925060208a0199505060018101905062001053565b50829750879550505050505092915050565b60006060820190508181036000830152620010bf818662000edd565b9050620010d0602083018562000f1e565b8181036040830152620010e4818462001022565b9050949350505050565b600060408201905081810360008301526200110a818562000edd565b90506200111b602083018462000da8565b9392505050565b600060208201905081810360008301526200113e818462000edd565b905092915050565b600081519050919050565b600082825260208201905092915050565b6000819050602082019050919050565b600062001180838362000f6c565b905092915050565b6000602082019050919050565b6000620011a28262001146565b620011ae818562001151565b935083602082028501620011c28562001162565b8060005b85811015620012045784840389528151620011e2858262001172565b9450620011ef8362001188565b925060208a01995050600181019050620011c6565b50829750879550505050505092915050565b600081519050919050565b600082825260208201905092915050565b6000819050602082019050919050565b600062001250838362000fad565b60208301905092915050565b6000602082019050919050565b6000620012768262001216565b62001282818562001221565b93506200128f8362001232565b8060005b83811015620012c6578151620012aa888262001242565b9750620012b7836200125c565b92505060018101905062001293565b5085935050505092915050565b600060a0820190508181036000830152620012ef818862000edd565b905062001300602083018762000f1e565b818103604083015262001314818662001195565b905081810360608301526200132a818562001269565b90506200133b608083018462000da8565b9695505050505050565b6000606082019050818103600083015262001361818662001195565b9050818103602083015262001377818562001269565b905062001388604083018462000da8565b949350505050565b60006040820190508181036000830152620013ac818562001195565b90508181036020830152620013c2818462001269565b90509392505050565b6000620013e2620013dc8462000984565b62000965565b905082815260208101848484011115620014015762001400620008ea565b5b6200140e84828562000eb1565b509392505050565b600082601f8301126200142e576200142d620008e5565b5b815162001440848260208601620013cb565b91505092915050565b6000815190506200145a8162000aa2565b92915050565b600067ffffffffffffffff8211156200147e576200147d62000900565b5b602082029050602081019050919050565b600080fd5b600080fd5b600060408284031215620014b257620014b16200148f565b5b620014be604062000965565b9050600082015167ffffffffffffffff811115620014e157620014e062001494565b5b620014ef8482850162001416565b6000830152506020620015058482850162001449565b60208301525092915050565b600062001528620015228462001460565b62000965565b905080838252602082019050602084028301858111156200154e576200154d62000b02565b5b835b818110156200159c57805167ffffffffffffffff811115620015775762001576620008e5565b5b80860162001586898262001499565b8552602085019450505060208101905062001550565b5050509392505050565b600082601f830112620015be57620015bd620008e5565b5b8151620015d084826020860162001511565b91505092915050565b600080600060608486031215620015f557620015f4620008db565b5b600084015167ffffffffffffffff811115620016165762001615620008e0565b5b620016248682870162001416565b9350506020620016378682870162001449565b925050604084015167ffffffffffffffff8111156200165b576200165a620008e0565b5b6200166986828701620015a6565b915050925092509256fe60806040523480156200001157600080fd5b5060405162001b9e38038062001b9e83398181016040528101906200003791906200055b565b80600260006101000a81548173ffffffffffffffffffffffffffffffffffffffff021916908373ffffffffffffffffffffffffffffffffffffffff160217905550846003908162000089919062000881565b508360018190555060005b83518110156200014a5760006040518060400160405280868481518110620000c157620000c062000968565b5b60200260200101518152602001858481518110620000e457620000e362000968565b5b6020026020010151815250908060018154018082558091505060019003906000526020600020906002020160009091909190915060008201518160000190816200012f919062000881565b50602082015181600101555050808060010191505062000094565b50505050505062000997565b6000604051905090565b600080fd5b600080fd5b600080fd5b600080fd5b6000601f19601f8301169050919050565b7f4e487b7100000000000000000000000000000000000000000000000000000000600052604160045260246000fd5b620001bf8262000174565b810181811067ffffffffffffffff82111715620001e157620001e062000185565b5b80604052505050565b6000620001f662000156565b9050620002048282620001b4565b919050565b600067ffffffffffffffff82111562000227576200022662000185565b5b620002328262000174565b9050602081019050919050565b60005b838110156200025f57808201518184015260208101905062000242565b60008484015250505050565b6000620002826200027c8462000209565b620001ea565b905082815260208101848484011115620002a157620002a06200016f565b5b620002ae8482856200023f565b509392505050565b600082601f830112620002ce57620002cd6200016a565b5b8151620002e08482602086016200026b565b91505092915050565b6000819050919050565b620002fe81620002e9565b81146200030a57600080fd5b50565b6000815190506200031e81620002f3565b92915050565b600067ffffffffffffffff82111562000342576200034162000185565b5b602082029050602081019050919050565b600080fd5b60006200036f620003698462000324565b620001ea565b9050808382526020820190506020840283018581111562000395576200039462000353565b5b835b81811015620003e357805167ffffffffffffffff811115620003be57620003bd6200016a565b5b808601620003cd8982620002b6565b8552602085019450505060208101905062000397565b5050509392505050565b600082601f8301126200040557620004046200016a565b5b81516200041784826020860162000358565b91505092915050565b600067ffffffffffffffff8211156200043e576200043d62000185565b5b602082029050602081019050919050565b600062000466620004608462000420565b620001ea565b905080838252602082019050602084028301858111156200048c576200048b62000353565b5b835b81811015620004b95780620004a488826200030d565b8452602084019350506020810190506200048e565b5050509392505050565b600082601f830112620004db57620004da6200016a565b5b8151620004ed8482602086016200044f565b91505092915050565b600073ffffffffffffffffffffffffffffffffffffffff82169050919050565b60006200052382620004f6565b9050919050565b620005358162000516565b81146200054157600080fd5b50565b60008151905062000555816200052a565b92915050565b600080600080600060a086880312156200057a576200057962000160565b5b600086015167ffffffffffffffff8111156200059b576200059a62000165565b5b620005a988828901620002b6565b9550506020620005bc888289016200030d565b945050604086015167ffffffffffffffff811115620005e057620005df62000165565b5b620005ee88828901620003ed565b935050606086015167ffffffffffffffff81111562000612576200061162000165565b5b6200062088828901620004c3565b9250506080620006338882890162000544565b9150509295509295909350565b600081519050919050565b7f4e487b7100000000000000000000000000000000000000000000000000000000600052602260045260246000fd5b600060028204905060018216806200069357607f821691505b602082108103620006a957620006a86200064b565b5b50919050565b60008190508160005260206000209050919050565b60006020601f8301049050919050565b600082821b905092915050565b600060088302620007137fffffffffffffffffffffffffffffffffffffffffffffffffffffffffffffffff82620006d4565b6200071f8683620006d4565b95508019841693508086168417925050509392505050565b6000819050919050565b6000620007626200075c6200075684620002e9565b62000737565b620002e9565b9050919050565b6000819050919050565b6200077e8362000741565b620007966200078d8262000769565b848454620006e1565b825550505050565b600090565b620007ad6200079e565b620007ba81848462000773565b505050565b5b81811015620007e257620007d6600082620007a3565b600181019050620007c0565b5050565b601f8211156200083157620007fb81620006af565b6200080684620006c4565b8101602085101562000816578190505b6200082e6200082585620006c4565b830182620007bf565b50505b505050565b600082821c905092915050565b6000620008566000198460080262000836565b1980831691505092915050565b600062000871838362000843565b9150826002028217905092915050565b6200088c8262000640565b67ffffffffffffffff811115620008a857620008a762000185565b5b620008b482546200067a565b620008c1828285620007e6565b600060209050601f831160018114620008f95760008415620008e4578287015190505b620008f0858262000863565b86555062000960565b601f1984166200090986620006af565b60005b8281101562000933578489015182556001820191506020850194506020810190506200090c565b868310156200095357848901516200094f601f89168262000843565b8355505b6001600288020188555050505b505050505050565b7f4e487b7100000000000000000000000000000000000000000000000000000000600052603260045260246000fd5b6111f780620009a76000396000f3fe608060405234801561001057600080fd5b506004361061007d5760003560e01c80638da5cb5b1161005b5780638da5cb5b146100d85780639051f993146100f6578063ae718c7114610116578063cf35bdd0146101345761007d565b806373acb590146100825780637664783c146100a05780638238a073146100bc575b600080fd5b61008a610165565b6040516100979190610760565b60405180910390f35b6100ba60048036038101906100b59190610b08565b61016b565b005b6100d660048036038101906100d19190610b93565b6102f1565b005b6100e061038e565b6040516100ed9190610bfe565b60405180910390f35b6100fe6103b4565b60405161010d93929190610df0565b60405180910390f35b61011e61054d565b60405161012b9190610e35565b60405180910390f35b61014e60048036038101906101499190610e57565b6105db565b60405161015c929190610e84565b60405180910390f35b60015481565b80600260009054906101000a900473ffffffffffffffffffffffffffffffffffffffff1673ffffffffffffffffffffffffffffffffffffffff168173ffffffffffffffffffffffffffffffffffffffff16146101f3576040517f21addeed00000000000000000000000000000000000000000000000000000000815260040160405180910390fd5b825184511461022e576040517fb1a4200400000000000000000000000000000000000000000000000000000000815260040160405180910390fd5b60008061023b9190610697565b60005b84518110156102ea576000604051806040016040528087848151811061026757610266610eb4565b5b6020026020010151815260200186848151811061028757610286610eb4565b5b6020026020010151815250908060018154018082558091505060019003906000526020600020906002020160009091909190915060008201518160000190816102d091906110ef565b50602082015181600101555050808060010191505061023e565b5050505050565b80600260009054906101000a900473ffffffffffffffffffffffffffffffffffffffff1673ffffffffffffffffffffffffffffffffffffffff168173ffffffffffffffffffffffffffffffffffffffff1614610379576040517f21addeed00000000000000000000000000000000000000000000000000000000815260040160405180910390fd5b826003908161038891906110ef565b50505050565b600260009054906101000a900473ffffffffffffffffffffffffffffffffffffffff1681565b606060006060600360015460008280546103cd90610f12565b80601f01602080910402602001604051908101604052809291908181526020018280546103f990610f12565b80156104465780601f1061041b57610100808354040283529160200191610446565b820191906000526020600020905b81548152906001019060200180831161042957829003601f168201915b5050505050925080805480602002602001604051908101604052809291908181526020016000905b8282101561053c57838290600052602060002090600202016040518060400160405290816000820180546104a190610f12565b80601f01602080910402602001604051908101604052809291908181526020018280546104cd90610f12565b801561051a5780601f106104ef5761010080835404028352916020019161051a565b820191906000526020600020905b8154815290600101906020018083116104fd57829003601f168201915b505050505081526020016001820154815250508152602001906001019061046e565b505050509050925092509250909192565b6003805461055a90610f12565b80601f016020809104026020016040519081016040528092919081815260200182805461058690610f12565b80156105d35780601f106105a8576101008083540402835291602001916105d3565b820191906000526020600020905b8154815290600101906020018083116105b657829003601f168201915b505050505081565b600081815481106105eb57600080fd5b906000526020600020906002020160009150905080600001805461060e90610f12565b80601f016020809104026020016040519081016040528092919081815260200182805461063a90610f12565b80156106875780601f1061065c57610100808354040283529160200191610687565b820191906000526020600020905b81548152906001019060200180831161066a57829003601f168201915b5050505050908060010154905082565b50805460008255600202906000526020600020908101906106b891906106bb565b50565b5b808211156106e657600080820160006106d591906106ea565b6001820160009055506002016106bc565b5090565b5080546106f690610f12565b6000825580601f106107085750610727565b601f016020900490600052602060002090810190610726919061072a565b5b50565b5b8082111561074357600081600090555060010161072b565b5090565b6000819050919050565b61075a81610747565b82525050565b60006020820190506107756000830184610751565b92915050565b6000604051905090565b600080fd5b600080fd5b600080fd5b6000601f19601f8301169050919050565b7f4e487b7100000000000000000000000000000000000000000000000000000000600052604160045260246000fd5b6107dd82610794565b810181811067ffffffffffffffff821117156107fc576107fb6107a5565b5b80604052505050565b600061080f61077b565b905061081b82826107d4565b919050565b600067ffffffffffffffff82111561083b5761083a6107a5565b5b602082029050602081019050919050565b600080fd5b600080fd5b600067ffffffffffffffff821115610871576108706107a5565b5b61087a82610794565b9050602081019050919050565b82818337600083830152505050565b60006108a96108a484610856565b610805565b9050828152602081018484840111156108c5576108c4610851565b5b6108d0848285610887565b509392505050565b600082601f8301126108ed576108ec61078f565b5b81356108fd848260208601610896565b91505092915050565b600061091961091484610820565b610805565b9050808382526020820190506020840283018581111561093c5761093b61084c565b5b835b8181101561098357803567ffffffffffffffff8111156109615761096061078f565b5b80860161096e89826108d8565b8552602085019450505060208101905061093e565b5050509392505050565b600082601f8301126109a2576109a161078f565b5b81356109b2848260208601610906565b91505092915050565b600067ffffffffffffffff8211156109d6576109d56107a5565b5b602082029050602081019050919050565b6109f081610747565b81146109fb57600080fd5b50565b600081359050610a0d816109e7565b92915050565b6000610a26610a21846109bb565b610805565b90508083825260208201905060208402830185811115610a4957610a4861084c565b5b835b81811015610a725780610a5e88826109fe565b845260208401935050602081019050610a4b565b5050509392505050565b600082601f830112610a9157610a9061078f565b5b8135610aa1848260208601610a13565b91505092915050565b600073ffffffffffffffffffffffffffffffffffffffff82169050919050565b6000610ad582610aaa565b9050919050565b610ae581610aca565b8114610af057600080fd5b50565b600081359050610b0281610adc565b92915050565b600080600060608486031215610b2157610b20610785565b5b600084013567ffffffffffffffff811115610b3f57610b3e61078a565b5b610b4b8682870161098d565b935050602084013567ffffffffffffffff811115610b6c57610b6b61078a565b5b610b7886828701610a7c565b9250506040610b8986828701610af3565b9150509250925092565b60008060408385031215610baa57610ba9610785565b5b600083013567ffffffffffffffff811115610bc857610bc761078a565b5b610bd4858286016108d8565b9250506020610be585828601610af3565b9150509250929050565b610bf881610aca565b82525050565b6000602082019050610c136000830184610bef565b92915050565b600081519050919050565b600082825260208201905092915050565b60005b83811015610c53578082015181840152602081019050610c38565b60008484015250505050565b6000610c6a82610c19565b610c748185610c24565b9350610c84818560208601610c35565b610c8d81610794565b840191505092915050565b600081519050919050565b600082825260208201905092915050565b6000819050602082019050919050565b600082825260208201905092915050565b6000610ce082610c19565b610cea8185610cc4565b9350610cfa818560208601610c35565b610d0381610794565b840191505092915050565b610d1781610747565b82525050565b60006040830160008301518482036000860152610d3a8282610cd5565b9150506020830151610d4f6020860182610d0e565b508091505092915050565b6000610d668383610d1d565b905092915050565b6000602082019050919050565b6000610d8682610c98565b610d908185610ca3565b935083602082028501610da285610cb4565b8060005b85811015610dde5784840389528151610dbf8582610d5a565b9450610dca83610d6e565b925060208a01995050600181019050610da6565b50829750879550505050505092915050565b60006060820190508181036000830152610e0a8186610c5f565b9050610e196020830185610751565b8181036040830152610e2b8184610d7b565b9050949350505050565b60006020820190508181036000830152610e4f8184610c5f565b905092915050565b600060208284031215610e6d57610e6c610785565b5b6000610e7b848285016109fe565b91505092915050565b60006040820190508181036000830152610e9e8185610c5f565b9050610ead6020830184610751565b9392505050565b7f4e487b7100000000000000000000000000000000000000000000000000000000600052603260045260246000fd5b7f4e487b7100000000000000000000000000000000000000000000000000000000600052602260045260246000fd5b60006002820490506001821680610f2a57607f821691505b602082108103610f3d57610f3c610ee3565b5b50919050565b60008190508160005260206000209050919050565b60006020601f8301049050919050565b600082821b905092915050565b600060088302610fa57fffffffffffffffffffffffffffffffffffffffffffffffffffffffffffffffff82610f68565b610faf8683610f68565b95508019841693508086168417925050509392505050565b6000819050919050565b6000610fec610fe7610fe284610747565b610fc7565b610747565b9050919050565b6000819050919050565b61100683610fd1565b61101a61101282610ff3565b848454610f75565b825550505050565b600090565b61102f611022565b61103a818484610ffd565b505050565b5b8181101561105e57611053600082611027565b600181019050611040565b5050565b601f8211156110a35761107481610f43565b61107d84610f58565b8101602085101561108c578190505b6110a061109885610f58565b83018261103f565b50505b505050565b600082821c905092915050565b60006110c6600019846008026110a8565b1980831691505092915050565b60006110df83836110b5565b9150826002028217905092915050565b6110f882610c19565b67ffffffffffffffff811115611111576111106107a5565b5b61111b8254610f12565b611126828285611062565b600060209050601f8311600181146111595760008415611147578287015190505b61115185826110d3565b8655506111b9565b601f19841661116786610f43565b60005b8281101561118f5784890151825560018201915060208501945060208101905061116a565b868310156111ac57848901516111a8601f8916826110b5565b8355505b6001600288020188555050505b50505050505056fea2646970667358221220bcc836f00bd8d20cc3cf27d0e36e7aeeaaacabff4a5a18f4261b479afe93b4c164736f6c63430008180033a2646970667358221220bf8f8bb0c4e2782bce9e270326d8eb6fa4895e3d30860023f04967985bdac2c664736f6c63430008180033",
  "linkReferences": {},
  "deployedLinkReferences": {}
}