{
  "_format": "hh-sol-artifact-1",
  "contractName": "PortfolioFactoryEngine",
  "sourceName": "contracts/PortfolioFactoryEngine.sol",
  "address": "0x0EB5C1Fa688Bf9Ab23cFc82310A59C350ceE82A0",
  "abi": [
    {
      "inputs": [],
      "stateMutability": "nonpayable",
      "type": "constructor"
    },
    {
      "inputs": [],
      "name": "PortfolioFactoryEngine__NoPortfolioFound",
      "type": "error"
    },
    {
      "anonymous": false,
      "inputs": [
        {
          "indexed": false,
          "internalType": "string[]",
          "name": "symbol",
          "type": "string[]"
        },
        {
          "indexed": false,
          "internalType": "uint256[]",
          "name": "allocation",
          "type": "uint256[]"
        }
      ],
      "name": "AssetsUpdated",
      "type": "event"
    },
    {
      "anonymous": false,
      "inputs": [
        {
          "indexed": false,
          "internalType": "address",
          "name": "portfolioAddress",
          "type": "address"
        }
      ],
      "name": "NewPortfolioCreated",
      "type": "event"
    },
    {
      "anonymous": false,
      "inputs": [
        {
          "indexed": false,
          "internalType": "string",
          "name": "newName",
          "type": "string"
        }
      ],
      "name": "PortfolioNameUpdated",
      "type": "event"
    },
    {
      "anonymous": false,
      "inputs": [
        {
          "indexed": false,
          "internalType": "uint256",
          "name": "newValue",
          "type": "uint256"
        }
      ],
      "name": "PortfolioValueUpdated",
      "type": "event"
    },
    {
      "inputs": [
        {
          "internalType": "string",
          "name": "_portfolioName",
          "type": "string"
        },
        {
          "internalType": "uint256",
          "name": "_portfolioValue",
          "type": "uint256"
        },
        {
          "internalType": "string[]",
          "name": "_symbols",
          "type": "string[]"
        },
        {
          "internalType": "uint256[]",
          "name": "_allocations",
          "type": "uint256[]"
        }
      ],
      "name": "createPortfolio",
      "outputs": [
        {
          "internalType": "address",
          "name": "",
          "type": "address"
        }
      ],
      "stateMutability": "nonpayable",
      "type": "function"
    },
    {
      "inputs": [],
      "name": "getNoOfTransactions",
      "outputs": [
        {
          "internalType": "uint256",
          "name": "",
          "type": "uint256"
        }
      ],
      "stateMutability": "view",
      "type": "function"
    },
    {
      "inputs": [],
      "name": "getUserPortfolioAddress",
      "outputs": [
        {
          "internalType": "address",
          "name": "",
          "type": "address"
        }
      ],
      "stateMutability": "view",
      "type": "function"
    },
    {
      "inputs": [],
      "name": "getUserPortfolioAssets",
      "outputs": [
        {
          "internalType": "string",
          "name": "",
          "type": "string"
        },
        {
          "internalType": "uint256",
          "name": "",
          "type": "uint256"
        },
        {
          "components": [
            {
              "internalType": "string",
              "name": "symbol",
              "type": "string"
            },
            {
              "internalType": "uint256",
              "name": "allocation",
              "type": "uint256"
            }
          ],
          "internalType": "struct Portfolio.Asset[]",
          "name": "",
          "type": "tuple[]"
        }
      ],
      "stateMutability": "view",
      "type": "function"
    },
    {
      "inputs": [],
      "name": "hasPortfolio",
      "outputs": [
        {
          "internalType": "bool",
          "name": "",
          "type": "bool"
        }
      ],
      "stateMutability": "view",
      "type": "function"
    },
    {
      "inputs": [
        {
          "internalType": "string[]",
          "name": "_symbols",
          "type": "string[]"
        },
        {
          "internalType": "uint256[]",
          "name": "_allocations",
          "type": "uint256[]"
        }
      ],
      "name": "updatePortfolio",
      "outputs": [],
      "stateMutability": "nonpayable",
      "type": "function"
    },
    {
      "inputs": [
        {
          "internalType": "string",
          "name": "_newName",
          "type": "string"
        }
      ],
      "name": "updatePortfolioName",
      "outputs": [],
      "stateMutability": "nonpayable",
      "type": "function"
    },
    {
      "inputs": [
        {
          "internalType": "uint256",
          "name": "_newValue",
          "type": "uint256"
        }
      ],
      "name": "updatePortfolioValue",
      "outputs": [],
      "stateMutability": "nonpayable",
      "type": "function"
    }
  ],
  "bytecode": "0x608060405234801561001057600080fd5b50613811806100206000396000f3fe60806040523480156200001157600080fd5b5060043610620000945760003560e01c80639b2f276411620000635780639b2f27641462000131578063c01486611462000151578063d5e4d67d1462000173578063d74fc1ea14620001955762000094565b806307ce5059146200009957806328fa939a14620000b9578063315dc31d14620000db5780638902ae1814620000fb575b600080fd5b620000b76004803603810190620000b1919062000e30565b620001b9565b005b620000c3620003e7565b604051620000d2919062000e9c565b60405180910390f35b620000f96004803603810190620000f3919062000eea565b6200042e565b005b620001196004803603810190620001139190620010ee565b6200065c565b60405162000128919062001202565b60405180910390f35b6200014f60048036038101906200014991906200121f565b620007bc565b005b6200015b620009ef565b6040516200016a9190620012c1565b60405180910390f35b6200017d62000a84565b6040516200018c919062001202565b60405180910390f35b6200019f62000aea565b604051620001b093929190620014db565b60405180910390f35b600073ffffffffffffffffffffffffffffffffffffffff166000803373ffffffffffffffffffffffffffffffffffffffff1673ffffffffffffffffffffffffffffffffffffffff16815260200190815260200160002060009054906101000a900473ffffffffffffffffffffffffffffffffffffffff1673ffffffffffffffffffffffffffffffffffffffff16036200027e576040517f3cfa3c6100000000000000000000000000000000000000000000000000000000815260040160405180910390fd5b60008060003373ffffffffffffffffffffffffffffffffffffffff1673ffffffffffffffffffffffffffffffffffffffff16815260200190815260200160002060009054906101000a900473ffffffffffffffffffffffffffffffffffffffff1690508073ffffffffffffffffffffffffffffffffffffffff16638238a07383336040518363ffffffff1660e01b81526004016200031e92919062001526565b600060405180830381600087803b1580156200033957600080fd5b505af11580156200034e573d6000803e3d6000fd5b5050505060018060003373ffffffffffffffffffffffffffffffffffffffff1673ffffffffffffffffffffffffffffffffffffffff1681526020019081526020016000206000828254620003a3919062001589565b925050819055507f06df12df2c7d3d81a035aa14dd7eba9e75e87dea9debbf7a9b50f25a449c258582604051620003db9190620015c4565b60405180910390a15050565b6000600160003373ffffffffffffffffffffffffffffffffffffffff1673ffffffffffffffffffffffffffffffffffffffff16815260200190815260200160002054905090565b600073ffffffffffffffffffffffffffffffffffffffff166000803373ffffffffffffffffffffffffffffffffffffffff1673ffffffffffffffffffffffffffffffffffffffff16815260200190815260200160002060009054906101000a900473ffffffffffffffffffffffffffffffffffffffff1673ffffffffffffffffffffffffffffffffffffffff1603620004f3576040517f3cfa3c6100000000000000000000000000000000000000000000000000000000815260040160405180910390fd5b60008060003373ffffffffffffffffffffffffffffffffffffffff1673ffffffffffffffffffffffffffffffffffffffff16815260200190815260200160002060009054906101000a900473ffffffffffffffffffffffffffffffffffffffff1690508073ffffffffffffffffffffffffffffffffffffffff166312b8597683336040518363ffffffff1660e01b815260040162000593929190620015e8565b600060405180830381600087803b158015620005ae57600080fd5b505af1158015620005c3573d6000803e3d6000fd5b5050505060018060003373ffffffffffffffffffffffffffffffffffffffff1673ffffffffffffffffffffffffffffffffffffffff168152602001908152602001600020600082825462000618919062001589565b925050819055507ffc2aeaa2437d3bd1c55273199515161edfbb9ef57cc1e5c997fd9fd558ba41c18260405162000650919062000e9c565b60405180910390a15050565b6000808585858533604051620006729062000cac565b62000682959493929190620017a2565b604051809103906000f0801580156200069f573d6000803e3d6000fd5b509050806000803373ffffffffffffffffffffffffffffffffffffffff1673ffffffffffffffffffffffffffffffffffffffff16815260200190815260200160002060006101000a81548173ffffffffffffffffffffffffffffffffffffffff021916908373ffffffffffffffffffffffffffffffffffffffff16021790555060018060003373ffffffffffffffffffffffffffffffffffffffff1673ffffffffffffffffffffffffffffffffffffffff168152602001908152602001600020600082825462000770919062001589565b925050819055507f830b6c7dd4ac49daae7fd74b39e45a6f02e43c903c8a1f897f8b505d01b1af9381604051620007a8919062001202565b60405180910390a180915050949350505050565b600073ffffffffffffffffffffffffffffffffffffffff166000803373ffffffffffffffffffffffffffffffffffffffff1673ffffffffffffffffffffffffffffffffffffffff16815260200190815260200160002060009054906101000a900473ffffffffffffffffffffffffffffffffffffffff1673ffffffffffffffffffffffffffffffffffffffff160362000881576040517f3cfa3c6100000000000000000000000000000000000000000000000000000000815260040160405180910390fd5b60008060003373ffffffffffffffffffffffffffffffffffffffff1673ffffffffffffffffffffffffffffffffffffffff16815260200190815260200160002060009054906101000a900473ffffffffffffffffffffffffffffffffffffffff1690508073ffffffffffffffffffffffffffffffffffffffff16637664783c8484336040518463ffffffff1660e01b8152600401620009239392919062001814565b600060405180830381600087803b1580156200093e57600080fd5b505af115801562000953573d6000803e3d6000fd5b5050505060018060003373ffffffffffffffffffffffffffffffffffffffff1673ffffffffffffffffffffffffffffffffffffffff1681526020019081526020016000206000828254620009a8919062001589565b925050819055507f337e5d8b086786aa562195d35c32b23dee4b1a0cbc2b7976417cf46928cf7c8b8383604051620009e29291906200185f565b60405180910390a1505050565b60008073ffffffffffffffffffffffffffffffffffffffff166000803373ffffffffffffffffffffffffffffffffffffffff1673ffffffffffffffffffffffffffffffffffffffff16815260200190815260200160002060009054906101000a900473ffffffffffffffffffffffffffffffffffffffff1673ffffffffffffffffffffffffffffffffffffffff161415905090565b60008060003373ffffffffffffffffffffffffffffffffffffffff1673ffffffffffffffffffffffffffffffffffffffff16815260200190815260200160002060009054906101000a900473ffffffffffffffffffffffffffffffffffffffff16905090565b606060006060600073ffffffffffffffffffffffffffffffffffffffff166000803373ffffffffffffffffffffffffffffffffffffffff1673ffffffffffffffffffffffffffffffffffffffff16815260200190815260200160002060009054906101000a900473ffffffffffffffffffffffffffffffffffffffff1673ffffffffffffffffffffffffffffffffffffffff160362000bb5576040517f3cfa3c6100000000000000000000000000000000000000000000000000000000815260040160405180910390fd5b60008060003373ffffffffffffffffffffffffffffffffffffffff1673ffffffffffffffffffffffffffffffffffffffff16815260200190815260200160002060009054906101000a900473ffffffffffffffffffffffffffffffffffffffff16905060008060008373ffffffffffffffffffffffffffffffffffffffff16639051f9936040518163ffffffff1660e01b8152600401600060405180830381865afa15801562000c69573d6000803e3d6000fd5b505050506040513d6000823e3d601f19601f8201168201806040525081019062000c94919062001aa8565b92509250925082828296509650965050505050909192565b611c998062001b4383390190565b6000604051905090565b600080fd5b600080fd5b600080fd5b600080fd5b6000601f19601f8301169050919050565b7f4e487b7100000000000000000000000000000000000000000000000000000000600052604160045260246000fd5b62000d238262000cd8565b810181811067ffffffffffffffff8211171562000d455762000d4462000ce9565b5b80604052505050565b600062000d5a62000cba565b905062000d68828262000d18565b919050565b600067ffffffffffffffff82111562000d8b5762000d8a62000ce9565b5b62000d968262000cd8565b9050602081019050919050565b82818337600083830152505050565b600062000dc962000dc38462000d6d565b62000d4e565b90508281526020810184848401111562000de85762000de762000cd3565b5b62000df584828562000da3565b509392505050565b600082601f83011262000e155762000e1462000cce565b5b813562000e2784826020860162000db2565b91505092915050565b60006020828403121562000e495762000e4862000cc4565b5b600082013567ffffffffffffffff81111562000e6a5762000e6962000cc9565b5b62000e788482850162000dfd565b91505092915050565b6000819050919050565b62000e968162000e81565b82525050565b600060208201905062000eb3600083018462000e8b565b92915050565b62000ec48162000e81565b811462000ed057600080fd5b50565b60008135905062000ee48162000eb9565b92915050565b60006020828403121562000f035762000f0262000cc4565b5b600062000f138482850162000ed3565b91505092915050565b600067ffffffffffffffff82111562000f3a5762000f3962000ce9565b5b602082029050602081019050919050565b600080fd5b600062000f6762000f618462000f1c565b62000d4e565b9050808382526020820190506020840283018581111562000f8d5762000f8c62000f4b565b5b835b8181101562000fdb57803567ffffffffffffffff81111562000fb65762000fb562000cce565b5b80860162000fc5898262000dfd565b8552602085019450505060208101905062000f8f565b5050509392505050565b600082601f83011262000ffd5762000ffc62000cce565b5b81356200100f84826020860162000f50565b91505092915050565b600067ffffffffffffffff82111562001036576200103562000ce9565b5b602082029050602081019050919050565b60006200105e620010588462001018565b62000d4e565b9050808382526020820190506020840283018581111562001084576200108362000f4b565b5b835b81811015620010b157806200109c888262000ed3565b84526020840193505060208101905062001086565b5050509392505050565b600082601f830112620010d357620010d262000cce565b5b8135620010e584826020860162001047565b91505092915050565b600080600080608085870312156200110b576200110a62000cc4565b5b600085013567ffffffffffffffff8111156200112c576200112b62000cc9565b5b6200113a8782880162000dfd565b94505060206200114d8782880162000ed3565b935050604085013567ffffffffffffffff81111562001171576200117062000cc9565b5b6200117f8782880162000fe5565b925050606085013567ffffffffffffffff811115620011a357620011a262000cc9565b5b620011b187828801620010bb565b91505092959194509250565b600073ffffffffffffffffffffffffffffffffffffffff82169050919050565b6000620011ea82620011bd565b9050919050565b620011fc81620011dd565b82525050565b6000602082019050620012196000830184620011f1565b92915050565b6000806040838503121562001239576200123862000cc4565b5b600083013567ffffffffffffffff8111156200125a576200125962000cc9565b5b620012688582860162000fe5565b925050602083013567ffffffffffffffff8111156200128c576200128b62000cc9565b5b6200129a85828601620010bb565b9150509250929050565b60008115159050919050565b620012bb81620012a4565b82525050565b6000602082019050620012d86000830184620012b0565b92915050565b600081519050919050565b600082825260208201905092915050565b60005b838110156200131a578082015181840152602081019050620012fd565b60008484015250505050565b60006200133382620012de565b6200133f8185620012e9565b935062001351818560208601620012fa565b6200135c8162000cd8565b840191505092915050565b600081519050919050565b600082825260208201905092915050565b6000819050602082019050919050565b600082825260208201905092915050565b6000620013b182620012de565b620013bd818562001393565b9350620013cf818560208601620012fa565b620013da8162000cd8565b840191505092915050565b620013f08162000e81565b82525050565b60006040830160008301518482036000860152620014158282620013a4565b91505060208301516200142c6020860182620013e5565b508091505092915050565b6000620014458383620013f6565b905092915050565b6000602082019050919050565b6000620014678262001367565b62001473818562001372565b935083602082028501620014878562001383565b8060005b85811015620014c95784840389528151620014a7858262001437565b9450620014b4836200144d565b925060208a019950506001810190506200148b565b50829750879550505050505092915050565b60006060820190508181036000830152620014f7818662001326565b905062001508602083018562000e8b565b81810360408301526200151c81846200145a565b9050949350505050565b6000604082019050818103600083015262001542818562001326565b9050620015536020830184620011f1565b9392505050565b7f4e487b7100000000000000000000000000000000000000000000000000000000600052601160045260246000fd5b6000620015968262000e81565b9150620015a38362000e81565b9250828201905080821115620015be57620015bd6200155a565b5b92915050565b60006020820190508181036000830152620015e0818462001326565b905092915050565b6000604082019050620015ff600083018562000e8b565b6200160e6020830184620011f1565b9392505050565b600081519050919050565b600082825260208201905092915050565b6000819050602082019050919050565b60006200164f8383620013a4565b905092915050565b6000602082019050919050565b6000620016718262001615565b6200167d818562001620565b935083602082028501620016918562001631565b8060005b85811015620016d35784840389528151620016b1858262001641565b9450620016be8362001657565b925060208a0199505060018101905062001695565b50829750879550505050505092915050565b600081519050919050565b600082825260208201905092915050565b6000819050602082019050919050565b60006200171f8383620013e5565b60208301905092915050565b6000602082019050919050565b60006200174582620016e5565b620017518185620016f0565b93506200175e8362001701565b8060005b838110156200179557815162001779888262001711565b975062001786836200172b565b92505060018101905062001762565b5085935050505092915050565b600060a0820190508181036000830152620017be818862001326565b9050620017cf602083018762000e8b565b8181036040830152620017e3818662001664565b90508181036060830152620017f9818562001738565b90506200180a6080830184620011f1565b9695505050505050565b6000606082019050818103600083015262001830818662001664565b9050818103602083015262001846818562001738565b9050620018576040830184620011f1565b949350505050565b600060408201905081810360008301526200187b818562001664565b9050818103602083015262001891818462001738565b90509392505050565b6000620018b1620018ab8462000d6d565b62000d4e565b905082815260208101848484011115620018d057620018cf62000cd3565b5b620018dd848285620012fa565b509392505050565b600082601f830112620018fd57620018fc62000cce565b5b81516200190f8482602086016200189a565b91505092915050565b600081519050620019298162000eb9565b92915050565b600067ffffffffffffffff8211156200194d576200194c62000ce9565b5b602082029050602081019050919050565b600080fd5b600080fd5b6000604082840312156200198157620019806200195e565b5b6200198d604062000d4e565b9050600082015167ffffffffffffffff811115620019b057620019af62001963565b5b620019be84828501620018e5565b6000830152506020620019d48482850162001918565b60208301525092915050565b6000620019f7620019f1846200192f565b62000d4e565b9050808382526020820190506020840283018581111562001a1d5762001a1c62000f4b565b5b835b8181101562001a6b57805167ffffffffffffffff81111562001a465762001a4562000cce565b5b80860162001a55898262001968565b8552602085019450505060208101905062001a1f565b5050509392505050565b600082601f83011262001a8d5762001a8c62000cce565b5b815162001a9f848260208601620019e0565b91505092915050565b60008060006060848603121562001ac45762001ac362000cc4565b5b600084015167ffffffffffffffff81111562001ae55762001ae462000cc9565b5b62001af386828701620018e5565b935050602062001b068682870162001918565b925050604084015167ffffffffffffffff81111562001b2a5762001b2962000cc9565b5b62001b388682870162001a75565b915050925092509256fe60806040523480156200001157600080fd5b5060405162001c9938038062001c9983398181016040528101906200003791906200055b565b80600260006101000a81548173ffffffffffffffffffffffffffffffffffffffff021916908373ffffffffffffffffffffffffffffffffffffffff160217905550846003908162000089919062000881565b508360018190555060005b83518110156200014a5760006040518060400160405280868481518110620000c157620000c062000968565b5b60200260200101518152602001858481518110620000e457620000e362000968565b5b6020026020010151815250908060018154018082558091505060019003906000526020600020906002020160009091909190915060008201518160000190816200012f919062000881565b50602082015181600101555050808060010191505062000094565b50505050505062000997565b6000604051905090565b600080fd5b600080fd5b600080fd5b600080fd5b6000601f19601f8301169050919050565b7f4e487b7100000000000000000000000000000000000000000000000000000000600052604160045260246000fd5b620001bf8262000174565b810181811067ffffffffffffffff82111715620001e157620001e062000185565b5b80604052505050565b6000620001f662000156565b9050620002048282620001b4565b919050565b600067ffffffffffffffff82111562000227576200022662000185565b5b620002328262000174565b9050602081019050919050565b60005b838110156200025f57808201518184015260208101905062000242565b60008484015250505050565b6000620002826200027c8462000209565b620001ea565b905082815260208101848484011115620002a157620002a06200016f565b5b620002ae8482856200023f565b509392505050565b600082601f830112620002ce57620002cd6200016a565b5b8151620002e08482602086016200026b565b91505092915050565b6000819050919050565b620002fe81620002e9565b81146200030a57600080fd5b50565b6000815190506200031e81620002f3565b92915050565b600067ffffffffffffffff82111562000342576200034162000185565b5b602082029050602081019050919050565b600080fd5b60006200036f620003698462000324565b620001ea565b9050808382526020820190506020840283018581111562000395576200039462000353565b5b835b81811015620003e357805167ffffffffffffffff811115620003be57620003bd6200016a565b5b808601620003cd8982620002b6565b8552602085019450505060208101905062000397565b5050509392505050565b600082601f8301126200040557620004046200016a565b5b81516200041784826020860162000358565b91505092915050565b600067ffffffffffffffff8211156200043e576200043d62000185565b5b602082029050602081019050919050565b600062000466620004608462000420565b620001ea565b905080838252602082019050602084028301858111156200048c576200048b62000353565b5b835b81811015620004b95780620004a488826200030d565b8452602084019350506020810190506200048e565b5050509392505050565b600082601f830112620004db57620004da6200016a565b5b8151620004ed8482602086016200044f565b91505092915050565b600073ffffffffffffffffffffffffffffffffffffffff82169050919050565b60006200052382620004f6565b9050919050565b620005358162000516565b81146200054157600080fd5b50565b60008151905062000555816200052a565b92915050565b600080600080600060a086880312156200057a576200057962000160565b5b600086015167ffffffffffffffff8111156200059b576200059a62000165565b5b620005a988828901620002b6565b9550506020620005bc888289016200030d565b945050604086015167ffffffffffffffff811115620005e057620005df62000165565b5b620005ee88828901620003ed565b935050606086015167ffffffffffffffff81111562000612576200061162000165565b5b6200062088828901620004c3565b9250506080620006338882890162000544565b9150509295509295909350565b600081519050919050565b7f4e487b7100000000000000000000000000000000000000000000000000000000600052602260045260246000fd5b600060028204905060018216806200069357607f821691505b602082108103620006a957620006a86200064b565b5b50919050565b60008190508160005260206000209050919050565b60006020601f8301049050919050565b600082821b905092915050565b600060088302620007137fffffffffffffffffffffffffffffffffffffffffffffffffffffffffffffffff82620006d4565b6200071f8683620006d4565b95508019841693508086168417925050509392505050565b6000819050919050565b6000620007626200075c6200075684620002e9565b62000737565b620002e9565b9050919050565b6000819050919050565b6200077e8362000741565b620007966200078d8262000769565b848454620006e1565b825550505050565b600090565b620007ad6200079e565b620007ba81848462000773565b505050565b5b81811015620007e257620007d6600082620007a3565b600181019050620007c0565b5050565b601f8211156200083157620007fb81620006af565b6200080684620006c4565b8101602085101562000816578190505b6200082e6200082585620006c4565b830182620007bf565b50505b505050565b600082821c905092915050565b6000620008566000198460080262000836565b1980831691505092915050565b600062000871838362000843565b9150826002028217905092915050565b6200088c8262000640565b67ffffffffffffffff811115620008a857620008a762000185565b5b620008b482546200067a565b620008c1828285620007e6565b600060209050601f831160018114620008f95760008415620008e4578287015190505b620008f0858262000863565b86555062000960565b601f1984166200090986620006af565b60005b8281101562000933578489015182556001820191506020850194506020810190506200090c565b868310156200095357848901516200094f601f89168262000843565b8355505b6001600288020188555050505b505050505050565b7f4e487b7100000000000000000000000000000000000000000000000000000000600052603260045260246000fd5b6112f280620009a76000396000f3fe608060405234801561001057600080fd5b50600436106100885760003560e01c80638da5cb5b1161005b5780638da5cb5b146100ff5780639051f9931461011d578063ae718c711461013d578063cf35bdd01461015b57610088565b806312b859761461008d57806373acb590146100a95780637664783c146100c75780638238a073146100e3575b600080fd5b6100a760048036038101906100a291906108aa565b61018c565b005b6100b1610220565b6040516100be91906108f9565b60405180910390f35b6100e160048036038101906100dc9190610c03565b610226565b005b6100fd60048036038101906100f89190610c8e565b6103ac565b005b610107610449565b6040516101149190610cf9565b60405180910390f35b61012561046f565b60405161013493929190610eeb565b60405180910390f35b610145610608565b6040516101529190610f30565b60405180910390f35b61017560048036038101906101709190610f52565b610696565b604051610183929190610f7f565b60405180910390f35b80600260009054906101000a900473ffffffffffffffffffffffffffffffffffffffff1673ffffffffffffffffffffffffffffffffffffffff168173ffffffffffffffffffffffffffffffffffffffff1614610214576040517f21addeed00000000000000000000000000000000000000000000000000000000815260040160405180910390fd5b82600181905550505050565b60015481565b80600260009054906101000a900473ffffffffffffffffffffffffffffffffffffffff1673ffffffffffffffffffffffffffffffffffffffff168173ffffffffffffffffffffffffffffffffffffffff16146102ae576040517f21addeed00000000000000000000000000000000000000000000000000000000815260040160405180910390fd5b82518451146102e9576040517fb1a4200400000000000000000000000000000000000000000000000000000000815260040160405180910390fd5b6000806102f69190610752565b60005b84518110156103a5576000604051806040016040528087848151811061032257610321610faf565b5b6020026020010151815260200186848151811061034257610341610faf565b5b60200260200101518152509080600181540180825580915050600190039060005260206000209060020201600090919091909150600082015181600001908161038b91906111ea565b5060208201518160010155505080806001019150506102f9565b5050505050565b80600260009054906101000a900473ffffffffffffffffffffffffffffffffffffffff1673ffffffffffffffffffffffffffffffffffffffff168173ffffffffffffffffffffffffffffffffffffffff1614610434576040517f21addeed00000000000000000000000000000000000000000000000000000000815260040160405180910390fd5b826003908161044391906111ea565b50505050565b600260009054906101000a900473ffffffffffffffffffffffffffffffffffffffff1681565b606060006060600360015460008280546104889061100d565b80601f01602080910402602001604051908101604052809291908181526020018280546104b49061100d565b80156105015780601f106104d657610100808354040283529160200191610501565b820191906000526020600020905b8154815290600101906020018083116104e457829003601f168201915b5050505050925080805480602002602001604051908101604052809291908181526020016000905b828210156105f7578382906000526020600020906002020160405180604001604052908160008201805461055c9061100d565b80601f01602080910402602001604051908101604052809291908181526020018280546105889061100d565b80156105d55780601f106105aa576101008083540402835291602001916105d5565b820191906000526020600020905b8154815290600101906020018083116105b857829003601f168201915b5050505050815260200160018201548152505081526020019060010190610529565b505050509050925092509250909192565b600380546106159061100d565b80601f01602080910402602001604051908101604052809291908181526020018280546106419061100d565b801561068e5780601f106106635761010080835404028352916020019161068e565b820191906000526020600020905b81548152906001019060200180831161067157829003601f168201915b505050505081565b600081815481106106a657600080fd5b90600052602060002090600202016000915090508060000180546106c99061100d565b80601f01602080910402602001604051908101604052809291908181526020018280546106f59061100d565b80156107425780601f1061071757610100808354040283529160200191610742565b820191906000526020600020905b81548152906001019060200180831161072557829003601f168201915b5050505050908060010154905082565b50805460008255600202906000526020600020908101906107739190610776565b50565b5b808211156107a1576000808201600061079091906107a5565b600182016000905550600201610777565b5090565b5080546107b19061100d565b6000825580601f106107c357506107e2565b601f0160209004906000526020600020908101906107e191906107e5565b5b50565b5b808211156107fe5760008160009055506001016107e6565b5090565b6000604051905090565b600080fd5b600080fd5b6000819050919050565b61082981610816565b811461083457600080fd5b50565b60008135905061084681610820565b92915050565b600073ffffffffffffffffffffffffffffffffffffffff82169050919050565b60006108778261084c565b9050919050565b6108878161086c565b811461089257600080fd5b50565b6000813590506108a48161087e565b92915050565b600080604083850312156108c1576108c061080c565b5b60006108cf85828601610837565b92505060206108e085828601610895565b9150509250929050565b6108f381610816565b82525050565b600060208201905061090e60008301846108ea565b92915050565b600080fd5b6000601f19601f8301169050919050565b7f4e487b7100000000000000000000000000000000000000000000000000000000600052604160045260246000fd5b61096282610919565b810181811067ffffffffffffffff821117156109815761098061092a565b5b80604052505050565b6000610994610802565b90506109a08282610959565b919050565b600067ffffffffffffffff8211156109c0576109bf61092a565b5b602082029050602081019050919050565b600080fd5b600080fd5b600067ffffffffffffffff8211156109f6576109f561092a565b5b6109ff82610919565b9050602081019050919050565b82818337600083830152505050565b6000610a2e610a29846109db565b61098a565b905082815260208101848484011115610a4a57610a496109d6565b5b610a55848285610a0c565b509392505050565b600082601f830112610a7257610a71610914565b5b8135610a82848260208601610a1b565b91505092915050565b6000610a9e610a99846109a5565b61098a565b90508083825260208201905060208402830185811115610ac157610ac06109d1565b5b835b81811015610b0857803567ffffffffffffffff811115610ae657610ae5610914565b5b808601610af38982610a5d565b85526020850194505050602081019050610ac3565b5050509392505050565b600082601f830112610b2757610b26610914565b5b8135610b37848260208601610a8b565b91505092915050565b600067ffffffffffffffff821115610b5b57610b5a61092a565b5b602082029050602081019050919050565b6000610b7f610b7a84610b40565b61098a565b90508083825260208201905060208402830185811115610ba257610ba16109d1565b5b835b81811015610bcb5780610bb78882610837565b845260208401935050602081019050610ba4565b5050509392505050565b600082601f830112610bea57610be9610914565b5b8135610bfa848260208601610b6c565b91505092915050565b600080600060608486031215610c1c57610c1b61080c565b5b600084013567ffffffffffffffff811115610c3a57610c39610811565b5b610c4686828701610b12565b935050602084013567ffffffffffffffff811115610c6757610c66610811565b5b610c7386828701610bd5565b9250506040610c8486828701610895565b9150509250925092565b60008060408385031215610ca557610ca461080c565b5b600083013567ffffffffffffffff811115610cc357610cc2610811565b5b610ccf85828601610a5d565b9250506020610ce085828601610895565b9150509250929050565b610cf38161086c565b82525050565b6000602082019050610d0e6000830184610cea565b92915050565b600081519050919050565b600082825260208201905092915050565b60005b83811015610d4e578082015181840152602081019050610d33565b60008484015250505050565b6000610d6582610d14565b610d6f8185610d1f565b9350610d7f818560208601610d30565b610d8881610919565b840191505092915050565b600081519050919050565b600082825260208201905092915050565b6000819050602082019050919050565b600082825260208201905092915050565b6000610ddb82610d14565b610de58185610dbf565b9350610df5818560208601610d30565b610dfe81610919565b840191505092915050565b610e1281610816565b82525050565b60006040830160008301518482036000860152610e358282610dd0565b9150506020830151610e4a6020860182610e09565b508091505092915050565b6000610e618383610e18565b905092915050565b6000602082019050919050565b6000610e8182610d93565b610e8b8185610d9e565b935083602082028501610e9d85610daf565b8060005b85811015610ed95784840389528151610eba8582610e55565b9450610ec583610e69565b925060208a01995050600181019050610ea1565b50829750879550505050505092915050565b60006060820190508181036000830152610f058186610d5a565b9050610f1460208301856108ea565b8181036040830152610f268184610e76565b9050949350505050565b60006020820190508181036000830152610f4a8184610d5a565b905092915050565b600060208284031215610f6857610f6761080c565b5b6000610f7684828501610837565b91505092915050565b60006040820190508181036000830152610f998185610d5a565b9050610fa860208301846108ea565b9392505050565b7f4e487b7100000000000000000000000000000000000000000000000000000000600052603260045260246000fd5b7f4e487b7100000000000000000000000000000000000000000000000000000000600052602260045260246000fd5b6000600282049050600182168061102557607f821691505b60208210810361103857611037610fde565b5b50919050565b60008190508160005260206000209050919050565b60006020601f8301049050919050565b600082821b905092915050565b6000600883026110a07fffffffffffffffffffffffffffffffffffffffffffffffffffffffffffffffff82611063565b6110aa8683611063565b95508019841693508086168417925050509392505050565b6000819050919050565b60006110e76110e26110dd84610816565b6110c2565b610816565b9050919050565b6000819050919050565b611101836110cc565b61111561110d826110ee565b848454611070565b825550505050565b600090565b61112a61111d565b6111358184846110f8565b505050565b5b818110156111595761114e600082611122565b60018101905061113b565b5050565b601f82111561119e5761116f8161103e565b61117884611053565b81016020851015611187578190505b61119b61119385611053565b83018261113a565b50505b505050565b600082821c905092915050565b60006111c1600019846008026111a3565b1980831691505092915050565b60006111da83836111b0565b9150826002028217905092915050565b6111f382610d14565b67ffffffffffffffff81111561120c5761120b61092a565b5b611216825461100d565b61122182828561115d565b600060209050601f8311600181146112545760008415611242578287015190505b61124c85826111ce565b8655506112b4565b601f1984166112628661103e565b60005b8281101561128a57848901518255600182019150602085019450602081019050611265565b868310156112a757848901516112a3601f8916826111b0565b8355505b6001600288020188555050505b50505050505056fea26469706673582212205a27c89648f46a8a10b26061e84685e51b0d092d2ad40629d22e1df5d89c121864736f6c63430008180033a2646970667358221220523f12fcb1d0724080e354b7e9097b2216062e3bfc13478d833b96935b3657b964736f6c63430008180033",
  "linkReferences": {},
  "deployedLinkReferences": {}
}